{
  "contractName": "fileman",
  "abi": [
    {
      "inputs": [
        {
          "internalType": "int256",
          "name": "_id",
          "type": "int256"
        },
        {
          "internalType": "string",
          "name": "_role",
          "type": "string"
        },
        {
          "internalType": "string",
          "name": "_name",
          "type": "string"
        }
      ],
      "name": "createUser",
      "outputs": [],
      "stateMutability": "nonpayable",
      "type": "function"
    },
    {
      "inputs": [
        {
          "internalType": "int256",
          "name": "_id",
          "type": "int256"
        }
      ],
      "name": "getUser",
      "outputs": [
        {
          "components": [
            {
              "internalType": "int256",
              "name": "id",
              "type": "int256"
            },
            {
              "internalType": "string",
              "name": "name",
              "type": "string"
            },
            {
              "internalType": "string",
              "name": "role",
              "type": "string"
            },
            {
              "internalType": "address[]",
              "name": "docs",
              "type": "address[]"
            }
          ],
          "internalType": "struct fileman.User",
          "name": "",
          "type": "tuple"
        }
      ],
      "stateMutability": "view",
      "type": "function",
      "constant": true
    },
    {
      "inputs": [],
      "name": "getAllUsers",
      "outputs": [
        {
          "internalType": "int256[]",
          "name": "",
          "type": "int256[]"
        }
      ],
      "stateMutability": "view",
      "type": "function",
      "constant": true
    },
    {
      "inputs": [
        {
          "internalType": "address",
          "name": "_hash",
          "type": "address"
        },
        {
          "internalType": "int256",
          "name": "_id",
          "type": "int256"
        }
      ],
      "name": "createDoc",
      "outputs": [],
      "stateMutability": "nonpayable",
      "type": "function"
    },
    {
      "inputs": [
        {
          "internalType": "address",
          "name": "_hash",
          "type": "address"
        }
      ],
      "name": "getDoc",
      "outputs": [
        {
          "components": [
            {
              "internalType": "address",
              "name": "hash",
              "type": "address"
            },
            {
              "internalType": "string",
              "name": "status",
              "type": "string"
            },
            {
              "internalType": "int256",
              "name": "verified_by",
              "type": "int256"
            },
            {
              "internalType": "int256",
              "name": "created_by",
              "type": "int256"
            }
          ],
          "internalType": "struct fileman.Doc",
          "name": "",
          "type": "tuple"
        }
      ],
      "stateMutability": "view",
      "type": "function",
      "constant": true
    },
    {
      "inputs": [],
      "name": "getAllDocs",
      "outputs": [
        {
          "internalType": "address[]",
          "name": "",
          "type": "address[]"
        }
      ],
      "stateMutability": "view",
      "type": "function",
      "constant": true
    },
    {
      "inputs": [
        {
          "internalType": "int256",
          "name": "_byId",
          "type": "int256"
        },
        {
          "internalType": "address",
          "name": "_hash",
          "type": "address"
        }
      ],
      "name": "getVerified",
      "outputs": [],
      "stateMutability": "nonpayable",
      "type": "function"
    },
    {
      "inputs": [
        {
          "internalType": "address",
          "name": "_hash",
          "type": "address"
        },
        {
          "internalType": "int256",
          "name": "_status",
          "type": "int256"
        }
      ],
      "name": "verifyDoc",
      "outputs": [],
      "stateMutability": "nonpayable",
      "type": "function"
    },
    {
      "inputs": [
        {
          "internalType": "address",
          "name": "_hash",
          "type": "address"
        }
      ],
      "name": "getVerificationStatus",
      "outputs": [
        {
          "internalType": "string",
          "name": "",
          "type": "string"
        },
        {
          "components": [
            {
              "internalType": "int256",
              "name": "id",
              "type": "int256"
            },
            {
              "internalType": "string",
              "name": "name",
              "type": "string"
            },
            {
              "internalType": "string",
              "name": "role",
              "type": "string"
            },
            {
              "internalType": "address[]",
              "name": "docs",
              "type": "address[]"
            }
          ],
          "internalType": "struct fileman.User",
          "name": "",
          "type": "tuple"
        }
      ],
      "stateMutability": "view",
      "type": "function",
      "constant": true
    }
  ],
  "bytecode": "0x608060405234801561001057600080fd5b5061198a806100206000396000f3fe608060405234801561001057600080fd5b50600436106100935760003560e01c80637e824689116100665780637e82468914610133578063898720ea1461014f578063b8fcf34e1461016b578063d0f86c9d14610187578063e2842d79146101b757610093565b806326976c8e146100985780633a8e1aa4146100b4578063485d992c146100d25780636103681a14610102575b600080fd5b6100b260048036038101906100ad9190611011565b6101d5565b005b6100bc61031c565b6040516100c9919061110f565b60405180910390f35b6100ec60048036038101906100e79190611131565b6103aa565b6040516100f99190611260565b60405180910390f35b61011c60048036038101906101179190611131565b6104ff565b60405161012a9291906113ac565b60405180910390f35b61014d60048036038101906101489190611448565b610805565b005b610169600480360381019061016491906114dd565b61094c565b005b610185600480360381019061018091906114dd565b610b50565b005b6101a1600480360381019061019c919061151d565b610c25565b6040516101ae919061154a565b60405180910390f35b6101bf610e0e565b6040516101cc919061161b565b60405180910390f35b60016000838152602001908152602001600020600301819080600181540180825580915050600190039060005260206000200160009091909190916101000a81548173ffffffffffffffffffffffffffffffffffffffff021916908373ffffffffffffffffffffffffffffffffffffffff1602179055506040518060400160405280601181526020017f50656e64696e673a2041737369676e6564000000000000000000000000000000815250600360008373ffffffffffffffffffffffffffffffffffffffff1673ffffffffffffffffffffffffffffffffffffffff16815260200190815260200160002060010190816102d09190611882565b5081600360008373ffffffffffffffffffffffffffffffffffffffff1673ffffffffffffffffffffffffffffffffffffffff168152602001908152602001600020600201819055505050565b606060028054806020026020016040519081016040528092919081815260200182805480156103a057602002820191906000526020600020905b8160009054906101000a900473ffffffffffffffffffffffffffffffffffffffff1673ffffffffffffffffffffffffffffffffffffffff1681526020019060010190808311610356575b5050505050905090565b6103b2610e66565b600360008373ffffffffffffffffffffffffffffffffffffffff1673ffffffffffffffffffffffffffffffffffffffff1681526020019081526020016000206040518060800160405290816000820160009054906101000a900473ffffffffffffffffffffffffffffffffffffffff1673ffffffffffffffffffffffffffffffffffffffff1673ffffffffffffffffffffffffffffffffffffffff1681526020016001820180546104629061169b565b80601f016020809104026020016040519081016040528092919081815260200182805461048e9061169b565b80156104db5780601f106104b0576101008083540402835291602001916104db565b820191906000526020600020905b8154815290600101906020018083116104be57829003601f168201915b50505050508152602001600282015481526020016003820154815250509050919050565b6060610509610ea4565b6000600360008573ffffffffffffffffffffffffffffffffffffffff1673ffffffffffffffffffffffffffffffffffffffff16815260200190815260200160002060010180546105589061169b565b80601f01602080910402602001604051908101604052809291908181526020018280546105849061169b565b80156105d15780601f106105a6576101008083540402835291602001916105d1565b820191906000526020600020905b8154815290600101906020018083116105b457829003601f168201915b50505050509050600060016000600360008873ffffffffffffffffffffffffffffffffffffffff1673ffffffffffffffffffffffffffffffffffffffff168152602001908152602001600020600201548152602001908152602001600020604051806080016040529081600082015481526020016001820180546106549061169b565b80601f01602080910402602001604051908101604052809291908181526020018280546106809061169b565b80156106cd5780601f106106a2576101008083540402835291602001916106cd565b820191906000526020600020905b8154815290600101906020018083116106b057829003601f168201915b505050505081526020016002820180546106e69061169b565b80601f01602080910402602001604051908101604052809291908181526020018280546107129061169b565b801561075f5780601f106107345761010080835404028352916020019161075f565b820191906000526020600020905b81548152906001019060200180831161074257829003601f168201915b50505050508152602001600382018054806020026020016040519081016040528092919081815260200182805480156107ed57602002820191906000526020600020905b8160009054906101000a900473ffffffffffffffffffffffffffffffffffffffff1673ffffffffffffffffffffffffffffffffffffffff16815260200190600101908083116107a3575b50505050508152505090508181935093505050915091565b61080d610ea4565b8581600001818152505084848080601f016020809104026020016040519081016040528093929190818152602001838380828437600081840152601f19601f82011690508083019250505050505050816040018190525082828080601f016020809104026020016040519081016040528093929190818152602001838380828437600081840152601f19601f82011690508083019250505050505050816020018190525080600160008881526020019081526020016000206000820151816000015560208201518160010190816108e49190611882565b5060408201518160020190816108fa9190611882565b506060820151816003019080519060200190610917929190610ecc565b509050506000869080600181540180825580915050600190039060005260206000200160009091909190915055505050505050565b600060405180608001604052808473ffffffffffffffffffffffffffffffffffffffff1681526020016040518060400160405280601581526020017f50656e64696e673a204e6f742041737369676e6564000000000000000000000081525081526020016000815260200183815250905080600360008573ffffffffffffffffffffffffffffffffffffffff1673ffffffffffffffffffffffffffffffffffffffff16815260200190815260200160002060008201518160000160006101000a81548173ffffffffffffffffffffffffffffffffffffffff021916908373ffffffffffffffffffffffffffffffffffffffff1602179055506020820151816001019081610a599190611882565b50604082015181600201556060820151816003015590505060016000838152602001908152602001600020600301839080600181540180825580915050600190039060005260206000200160009091909190916101000a81548173ffffffffffffffffffffffffffffffffffffffff021916908373ffffffffffffffffffffffffffffffffffffffff1602179055506002839080600181540180825580915050600190039060005260206000200160009091909190916101000a81548173ffffffffffffffffffffffffffffffffffffffff021916908373ffffffffffffffffffffffffffffffffffffffff160217905550505050565b606060008203610b97576040518060400160405280600881526020017f4465636c696e65640000000000000000000000000000000000000000000000008152509050610bd0565b6040518060400160405280600881526020017f416363657074656400000000000000000000000000000000000000000000000081525090505b80600360008573ffffffffffffffffffffffffffffffffffffffff1673ffffffffffffffffffffffffffffffffffffffff1681526020019081526020016000206001019081610c1f9190611882565b50505050565b610c2d610ea4565b6001600083815260200190815260200160002060405180608001604052908160008201548152602001600182018054610c659061169b565b80601f0160208091040260200160405190810160405280929190818152602001828054610c919061169b565b8015610cde5780601f10610cb357610100808354040283529160200191610cde565b820191906000526020600020905b815481529060010190602001808311610cc157829003601f168201915b50505050508152602001600282018054610cf79061169b565b80601f0160208091040260200160405190810160405280929190818152602001828054610d239061169b565b8015610d705780601f10610d4557610100808354040283529160200191610d70565b820191906000526020600020905b815481529060010190602001808311610d5357829003601f168201915b5050505050815260200160038201805480602002602001604051908101604052809291908181526020018280548015610dfe57602002820191906000526020600020905b8160009054906101000a900473ffffffffffffffffffffffffffffffffffffffff1673ffffffffffffffffffffffffffffffffffffffff1681526020019060010190808311610db4575b5050505050815250509050919050565b60606000805480602002602001604051908101604052809291908181526020018280548015610e5c57602002820191906000526020600020905b815481526020019060010190808311610e48575b5050505050905090565b6040518060800160405280600073ffffffffffffffffffffffffffffffffffffffff1681526020016060815260200160008152602001600081525090565b6040518060800160405280600081526020016060815260200160608152602001606081525090565b828054828255906000526020600020908101928215610f45579160200282015b82811115610f445782518260006101000a81548173ffffffffffffffffffffffffffffffffffffffff021916908373ffffffffffffffffffffffffffffffffffffffff16021790555091602001919060010190610eec565b5b509050610f529190610f56565b5090565b5b80821115610f6f576000816000905550600101610f57565b5090565b600080fd5b600080fd5b6000819050919050565b610f9081610f7d565b8114610f9b57600080fd5b50565b600081359050610fad81610f87565b92915050565b600073ffffffffffffffffffffffffffffffffffffffff82169050919050565b6000610fde82610fb3565b9050919050565b610fee81610fd3565b8114610ff957600080fd5b50565b60008135905061100b81610fe5565b92915050565b6000806040838503121561102857611027610f73565b5b600061103685828601610f9e565b925050602061104785828601610ffc565b9150509250929050565b600081519050919050565b600082825260208201905092915050565b6000819050602082019050919050565b61108681610fd3565b82525050565b6000611098838361107d565b60208301905092915050565b6000602082019050919050565b60006110bc82611051565b6110c6818561105c565b93506110d18361106d565b8060005b838110156111025781516110e9888261108c565b97506110f4836110a4565b9250506001810190506110d5565b5085935050505092915050565b6000602082019050818103600083015261112981846110b1565b905092915050565b60006020828403121561114757611146610f73565b5b600061115584828501610ffc565b91505092915050565b600081519050919050565b600082825260208201905092915050565b60005b8381101561119857808201518184015260208101905061117d565b60008484015250505050565b6000601f19601f8301169050919050565b60006111c08261115e565b6111ca8185611169565b93506111da81856020860161117a565b6111e3816111a4565b840191505092915050565b6111f781610f7d565b82525050565b6000608083016000830151611215600086018261107d565b506020830151848203602086015261122d82826111b5565b915050604083015161124260408601826111ee565b50606083015161125560608601826111ee565b508091505092915050565b6000602082019050818103600083015261127a81846111fd565b905092915050565b600082825260208201905092915050565b600061129e8261115e565b6112a88185611282565b93506112b881856020860161117a565b6112c1816111a4565b840191505092915050565b600082825260208201905092915050565b60006112e882611051565b6112f281856112cc565b93506112fd8361106d565b8060005b8381101561132e578151611315888261108c565b9750611320836110a4565b925050600181019050611301565b5085935050505092915050565b600060808301600083015161135360008601826111ee565b506020830151848203602086015261136b82826111b5565b9150506040830151848203604086015261138582826111b5565b9150506060830151848203606086015261139f82826112dd565b9150508091505092915050565b600060408201905081810360008301526113c68185611293565b905081810360208301526113da818461133b565b90509392505050565b600080fd5b600080fd5b600080fd5b60008083601f840112611408576114076113e3565b5b8235905067ffffffffffffffff811115611425576114246113e8565b5b602083019150836001820283011115611441576114406113ed565b5b9250929050565b60008060008060006060868803121561146457611463610f73565b5b600061147288828901610f9e565b955050602086013567ffffffffffffffff81111561149357611492610f78565b5b61149f888289016113f2565b9450945050604086013567ffffffffffffffff8111156114c2576114c1610f78565b5b6114ce888289016113f2565b92509250509295509295909350565b600080604083850312156114f4576114f3610f73565b5b600061150285828601610ffc565b925050602061151385828601610f9e565b9150509250929050565b60006020828403121561153357611532610f73565b5b600061154184828501610f9e565b91505092915050565b60006020820190508181036000830152611564818461133b565b905092915050565b600081519050919050565b600082825260208201905092915050565b6000819050602082019050919050565b60006115a483836111ee565b60208301905092915050565b6000602082019050919050565b60006115c88261156c565b6115d28185611577565b93506115dd83611588565b8060005b8381101561160e5781516115f58882611598565b9750611600836115b0565b9250506001810190506115e1565b5085935050505092915050565b6000602082019050818103600083015261163581846115bd565b905092915050565b7f4e487b7100000000000000000000000000000000000000000000000000000000600052604160045260246000fd5b7f4e487b7100000000000000000000000000000000000000000000000000000000600052602260045260246000fd5b600060028204905060018216806116b357607f821691505b6020821081036116c6576116c561166c565b5b50919050565b60008190508160005260206000209050919050565b60006020601f8301049050919050565b600082821b905092915050565b60006008830261172e7fffffffffffffffffffffffffffffffffffffffffffffffffffffffffffffffff826116f1565b61173886836116f1565b95508019841693508086168417925050509392505050565b6000819050919050565b6000819050919050565b600061177f61177a61177584611750565b61175a565b611750565b9050919050565b6000819050919050565b61179983611764565b6117ad6117a582611786565b8484546116fe565b825550505050565b600090565b6117c26117b5565b6117cd818484611790565b505050565b5b818110156117f1576117e66000826117ba565b6001810190506117d3565b5050565b601f82111561183657611807816116cc565b611810846116e1565b8101602085101561181f578190505b61183361182b856116e1565b8301826117d2565b50505b505050565b600082821c905092915050565b60006118596000198460080261183b565b1980831691505092915050565b60006118728383611848565b9150826002028217905092915050565b61188b8261115e565b67ffffffffffffffff8111156118a4576118a361163d565b5b6118ae825461169b565b6118b98282856117f5565b600060209050601f8311600181146118ec57600084156118da578287015190505b6118e48582611866565b86555061194c565b601f1984166118fa866116cc565b60005b82811015611922578489015182556001820191506020850194506020810190506118fd565b8683101561193f578489015161193b601f891682611848565b8355505b6001600288020188555050505b50505050505056fea2646970667358221220c6083ed586f9a67286a174893143a58ce3187127bbb93ee625d6ed8684f623f764736f6c63430008110033",
  "immutableReferences": {},
  "source": "//SPDX-License-Identifier: MIT\npragma solidity ^0.8.8; \ncontract fileman{\n\n//-------------MODELS-------------------                                  \n    struct User{\n        int id;\n        string name;\n        string role;\n        address[] docs;\n    }\n    struct Doc{\n        address hash;\n        string status;\n        int verified_by;\n        int created_by;\n    }\n    \n//----------------Data Structures----------\n//-------------Users\n    // User[]  allUsers;\n    int[]  allUsersId;\n    mapping(int => User)  users;\n    //---------Docs\n    // Doc[] allDocs;\n    address[] allDocsHash;\n    mapping(address => Doc)  docs;\n\n//-----------------Functions---------------\n//-------------Users\n    function createUser(int _id, string calldata _role, string calldata _name) public {\n        User memory newUser ;\n        newUser.id = _id;\n        newUser.role = _role;\n        newUser.name = _name;\n        users[_id] = newUser;\n        allUsersId.push(_id);\n        // allUsers.push(newUser);\n    }\n    function getUser(int _id) public view returns (User memory ){\n       return users[_id]; \n    }\n    function getAllUsers() view public returns (int[] memory){\n        return(allUsersId);\n    }\n//------------Docs\n    function createDoc(address  _hash, int  _id) public {\n        Doc memory newDoc = Doc({hash: _hash, status: \"Pending: Not Assigned\", verified_by: 0, created_by: _id});\n        docs[_hash] = newDoc;\n        users[_id].docs.push(_hash);\n        allDocsHash.push(_hash);\n        // id_keys.push(_id);\n    }\n    function getDoc(address _hash) view public returns (Doc memory){\n        return docs[_hash];\n    }\n    function getAllDocs() view public returns (address[] memory){\n        return(allDocsHash);\n    }\n//------------Verification\n    function getVerified(int _byId, address _hash) public {\n        users[_byId].docs.push(_hash);\n        docs[_hash].status = \"Pending: Assigned\";\n        docs[_hash].verified_by = _byId;\n    }\n    function verifyDoc(address _hash, int _status) public{\n        string memory s;\n        if(_status == 0){\n            s = \"Declined\";\n        }\n        else{\n            s = \"Accepted\";\n        }\n        docs[_hash].status = s;\n    }\n    function getVerificationStatus(address _hash) view public returns(string memory, User memory){\n        string memory _status = docs[_hash].status;\n        User memory _verfiee = users[docs[_hash].verified_by];\n        return(_status, _verfiee);\n    }\n\n\n\n}",
  "sourcePath": "E:\\Code\\lnmhacks\\contracts\\FileName.sol",
  "compiler": {
    "name": "solc",
    "version": "0.8.17+commit.8df45f5f.Emscripten.clang"
  },
  "schemaVersion": "3.4.11",
  "updatedAt": "2023-01-28T17:29:33.878Z",
  "networkType": "ethereum",
  "devdoc": {
    "kind": "dev",
    "methods": {},
    "version": 1
  },
  "userdoc": {
    "kind": "user",
    "methods": {},
    "version": 1
  }
}